{
  "_format": "hh-sol-artifact-1",
  "contractName": "RWAAssetToken",
  "sourceName": "contracts/RWAAssetToken.sol",
  "abi": [
    {
      "inputs": [
        {
          "internalType": "address",
          "name": "_compliance",
          "type": "address"
        }
      ],
      "stateMutability": "nonpayable",
      "type": "constructor"
    },
    {
      "inputs": [],
      "name": "AccessControlBadConfirmation",
      "type": "error"
    },
    {
      "inputs": [
        {
          "internalType": "address",
          "name": "account",
          "type": "address"
        },
        {
          "internalType": "bytes32",
          "name": "neededRole",
          "type": "bytes32"
        }
      ],
      "name": "AccessControlUnauthorizedAccount",
      "type": "error"
    },
    {
      "inputs": [
        {
          "internalType": "address",
          "name": "spender",
          "type": "address"
        },
        {
          "internalType": "uint256",
          "name": "allowance",
          "type": "uint256"
        },
        {
          "internalType": "uint256",
          "name": "needed",
          "type": "uint256"
        }
      ],
      "name": "ERC20InsufficientAllowance",
      "type": "error"
    },
    {
      "inputs": [
        {
          "internalType": "address",
          "name": "sender",
          "type": "address"
        },
        {
          "internalType": "uint256",
          "name": "balance",
          "type": "uint256"
        },
        {
          "internalType": "uint256",
          "name": "needed",
          "type": "uint256"
        }
      ],
      "name": "ERC20InsufficientBalance",
      "type": "error"
    },
    {
      "inputs": [
        {
          "internalType": "address",
          "name": "approver",
          "type": "address"
        }
      ],
      "name": "ERC20InvalidApprover",
      "type": "error"
    },
    {
      "inputs": [
        {
          "internalType": "address",
          "name": "receiver",
          "type": "address"
        }
      ],
      "name": "ERC20InvalidReceiver",
      "type": "error"
    },
    {
      "inputs": [
        {
          "internalType": "address",
          "name": "sender",
          "type": "address"
        }
      ],
      "name": "ERC20InvalidSender",
      "type": "error"
    },
    {
      "inputs": [
        {
          "internalType": "address",
          "name": "spender",
          "type": "address"
        }
      ],
      "name": "ERC20InvalidSpender",
      "type": "error"
    },
    {
      "anonymous": false,
      "inputs": [
        {
          "indexed": true,
          "internalType": "address",
          "name": "owner",
          "type": "address"
        },
        {
          "indexed": true,
          "internalType": "address",
          "name": "spender",
          "type": "address"
        },
        {
          "indexed": false,
          "internalType": "uint256",
          "name": "value",
          "type": "uint256"
        }
      ],
      "name": "Approval",
      "type": "event"
    },
    {
      "anonymous": false,
      "inputs": [
        {
          "indexed": true,
          "internalType": "bytes32",
          "name": "role",
          "type": "bytes32"
        },
        {
          "indexed": true,
          "internalType": "bytes32",
          "name": "previousAdminRole",
          "type": "bytes32"
        },
        {
          "indexed": true,
          "internalType": "bytes32",
          "name": "newAdminRole",
          "type": "bytes32"
        }
      ],
      "name": "RoleAdminChanged",
      "type": "event"
    },
    {
      "anonymous": false,
      "inputs": [
        {
          "indexed": true,
          "internalType": "bytes32",
          "name": "role",
          "type": "bytes32"
        },
        {
          "indexed": true,
          "internalType": "address",
          "name": "account",
          "type": "address"
        },
        {
          "indexed": true,
          "internalType": "address",
          "name": "sender",
          "type": "address"
        }
      ],
      "name": "RoleGranted",
      "type": "event"
    },
    {
      "anonymous": false,
      "inputs": [
        {
          "indexed": true,
          "internalType": "bytes32",
          "name": "role",
          "type": "bytes32"
        },
        {
          "indexed": true,
          "internalType": "address",
          "name": "account",
          "type": "address"
        },
        {
          "indexed": true,
          "internalType": "address",
          "name": "sender",
          "type": "address"
        }
      ],
      "name": "RoleRevoked",
      "type": "event"
    },
    {
      "anonymous": false,
      "inputs": [
        {
          "indexed": true,
          "internalType": "address",
          "name": "from",
          "type": "address"
        },
        {
          "indexed": true,
          "internalType": "address",
          "name": "to",
          "type": "address"
        },
        {
          "indexed": false,
          "internalType": "uint256",
          "name": "value",
          "type": "uint256"
        }
      ],
      "name": "Transfer",
      "type": "event"
    },
    {
      "inputs": [],
      "name": "DEFAULT_ADMIN_ROLE",
      "outputs": [
        {
          "internalType": "bytes32",
          "name": "",
          "type": "bytes32"
        }
      ],
      "stateMutability": "view",
      "type": "function"
    },
    {
      "inputs": [],
      "name": "ISSUER_ROLE",
      "outputs": [
        {
          "internalType": "bytes32",
          "name": "",
          "type": "bytes32"
        }
      ],
      "stateMutability": "view",
      "type": "function"
    },
    {
      "inputs": [
        {
          "internalType": "address",
          "name": "owner",
          "type": "address"
        },
        {
          "internalType": "address",
          "name": "spender",
          "type": "address"
        }
      ],
      "name": "allowance",
      "outputs": [
        {
          "internalType": "uint256",
          "name": "",
          "type": "uint256"
        }
      ],
      "stateMutability": "view",
      "type": "function"
    },
    {
      "inputs": [
        {
          "internalType": "address",
          "name": "spender",
          "type": "address"
        },
        {
          "internalType": "uint256",
          "name": "value",
          "type": "uint256"
        }
      ],
      "name": "approve",
      "outputs": [
        {
          "internalType": "bool",
          "name": "",
          "type": "bool"
        }
      ],
      "stateMutability": "nonpayable",
      "type": "function"
    },
    {
      "inputs": [
        {
          "internalType": "address",
          "name": "account",
          "type": "address"
        }
      ],
      "name": "balanceOf",
      "outputs": [
        {
          "internalType": "uint256",
          "name": "",
          "type": "uint256"
        }
      ],
      "stateMutability": "view",
      "type": "function"
    },
    {
      "inputs": [],
      "name": "compliance",
      "outputs": [
        {
          "internalType": "contract ComplianceModule",
          "name": "",
          "type": "address"
        }
      ],
      "stateMutability": "view",
      "type": "function"
    },
    {
      "inputs": [],
      "name": "decimals",
      "outputs": [
        {
          "internalType": "uint8",
          "name": "",
          "type": "uint8"
        }
      ],
      "stateMutability": "view",
      "type": "function"
    },
    {
      "inputs": [
        {
          "internalType": "bytes32",
          "name": "role",
          "type": "bytes32"
        }
      ],
      "name": "getRoleAdmin",
      "outputs": [
        {
          "internalType": "bytes32",
          "name": "",
          "type": "bytes32"
        }
      ],
      "stateMutability": "view",
      "type": "function"
    },
    {
      "inputs": [
        {
          "internalType": "bytes32",
          "name": "role",
          "type": "bytes32"
        },
        {
          "internalType": "address",
          "name": "account",
          "type": "address"
        }
      ],
      "name": "grantRole",
      "outputs": [],
      "stateMutability": "nonpayable",
      "type": "function"
    },
    {
      "inputs": [
        {
          "internalType": "bytes32",
          "name": "role",
          "type": "bytes32"
        },
        {
          "internalType": "address",
          "name": "account",
          "type": "address"
        }
      ],
      "name": "hasRole",
      "outputs": [
        {
          "internalType": "bool",
          "name": "",
          "type": "bool"
        }
      ],
      "stateMutability": "view",
      "type": "function"
    },
    {
      "inputs": [
        {
          "internalType": "address",
          "name": "to",
          "type": "address"
        },
        {
          "internalType": "uint256",
          "name": "amount",
          "type": "uint256"
        }
      ],
      "name": "mint",
      "outputs": [],
      "stateMutability": "nonpayable",
      "type": "function"
    },
    {
      "inputs": [],
      "name": "name",
      "outputs": [
        {
          "internalType": "string",
          "name": "",
          "type": "string"
        }
      ],
      "stateMutability": "view",
      "type": "function"
    },
    {
      "inputs": [
        {
          "internalType": "bytes32",
          "name": "role",
          "type": "bytes32"
        },
        {
          "internalType": "address",
          "name": "callerConfirmation",
          "type": "address"
        }
      ],
      "name": "renounceRole",
      "outputs": [],
      "stateMutability": "nonpayable",
      "type": "function"
    },
    {
      "inputs": [
        {
          "internalType": "bytes32",
          "name": "role",
          "type": "bytes32"
        },
        {
          "internalType": "address",
          "name": "account",
          "type": "address"
        }
      ],
      "name": "revokeRole",
      "outputs": [],
      "stateMutability": "nonpayable",
      "type": "function"
    },
    {
      "inputs": [
        {
          "internalType": "bytes4",
          "name": "interfaceId",
          "type": "bytes4"
        }
      ],
      "name": "supportsInterface",
      "outputs": [
        {
          "internalType": "bool",
          "name": "",
          "type": "bool"
        }
      ],
      "stateMutability": "view",
      "type": "function"
    },
    {
      "inputs": [],
      "name": "symbol",
      "outputs": [
        {
          "internalType": "string",
          "name": "",
          "type": "string"
        }
      ],
      "stateMutability": "view",
      "type": "function"
    },
    {
      "inputs": [],
      "name": "totalSupply",
      "outputs": [
        {
          "internalType": "uint256",
          "name": "",
          "type": "uint256"
        }
      ],
      "stateMutability": "view",
      "type": "function"
    },
    {
      "inputs": [
        {
          "internalType": "address",
          "name": "to",
          "type": "address"
        },
        {
          "internalType": "uint256",
          "name": "value",
          "type": "uint256"
        }
      ],
      "name": "transfer",
      "outputs": [
        {
          "internalType": "bool",
          "name": "",
          "type": "bool"
        }
      ],
      "stateMutability": "nonpayable",
      "type": "function"
    },
    {
      "inputs": [
        {
          "internalType": "address",
          "name": "from",
          "type": "address"
        },
        {
          "internalType": "address",
          "name": "to",
          "type": "address"
        },
        {
          "internalType": "uint256",
          "name": "value",
          "type": "uint256"
        }
      ],
      "name": "transferFrom",
      "outputs": [
        {
          "internalType": "bool",
          "name": "",
          "type": "bool"
        }
      ],
      "stateMutability": "nonpayable",
      "type": "function"
    }
  ],
  "bytecode": "0x608060405234801561001057600080fd5b506040516121c93803806121c983398181016040528101906100329190610320565b6040518060400160405280600981526020017f52574120546f6b656e00000000000000000000000000000000000000000000008152506040518060400160405280600381526020017f525741000000000000000000000000000000000000000000000000000000000081525081600390816100ad919061059d565b5080600490816100bd919061059d565b5050506100d36000801b3361014c60201b60201c565b506101047f114e74f6ea3bd819998f78687bfcb11b140da08e9b7d222fa9c1f1ba1f2aa1223361014c60201b60201c565b5080600660006101000a81548173ffffffffffffffffffffffffffffffffffffffff021916908373ffffffffffffffffffffffffffffffffffffffff1602179055505061066f565b600061015e838361024a60201b60201c565b61023f5760016005600085815260200190815260200160002060000160008473ffffffffffffffffffffffffffffffffffffffff1673ffffffffffffffffffffffffffffffffffffffff16815260200190815260200160002060006101000a81548160ff0219169083151502179055506101dc6102b560201b60201c565b73ffffffffffffffffffffffffffffffffffffffff168273ffffffffffffffffffffffffffffffffffffffff16847f2f8788117e7eff1d82e926ec794901d17c78024a50270940304540a733656f0d60405160405180910390a460019050610244565b600090505b92915050565b60006005600084815260200190815260200160002060000160008373ffffffffffffffffffffffffffffffffffffffff1673ffffffffffffffffffffffffffffffffffffffff16815260200190815260200160002060009054906101000a900460ff16905092915050565b600033905090565b600080fd5b600073ffffffffffffffffffffffffffffffffffffffff82169050919050565b60006102ed826102c2565b9050919050565b6102fd816102e2565b811461030857600080fd5b50565b60008151905061031a816102f4565b92915050565b600060208284031215610336576103356102bd565b5b60006103448482850161030b565b91505092915050565b600081519050919050565b7f4e487b7100000000000000000000000000000000000000000000000000000000600052604160045260246000fd5b7f4e487b7100000000000000000000000000000000000000000000000000000000600052602260045260246000fd5b600060028204905060018216806103ce57607f821691505b6020821081036103e1576103e0610387565b5b50919050565b60008190508160005260206000209050919050565b60006020601f8301049050919050565b600082821b905092915050565b6000600883026104497fffffffffffffffffffffffffffffffffffffffffffffffffffffffffffffffff8261040c565b610453868361040c565b95508019841693508086168417925050509392505050565b6000819050919050565b6000819050919050565b600061049a6104956104908461046b565b610475565b61046b565b9050919050565b6000819050919050565b6104b48361047f565b6104c86104c0826104a1565b848454610419565b825550505050565b600090565b6104dd6104d0565b6104e88184846104ab565b505050565b5b8181101561050c576105016000826104d5565b6001810190506104ee565b5050565b601f82111561055157610522816103e7565b61052b846103fc565b8101602085101561053a578190505b61054e610546856103fc565b8301826104ed565b50505b505050565b600082821c905092915050565b600061057460001984600802610556565b1980831691505092915050565b600061058d8383610563565b9150826002028217905092915050565b6105a68261034d565b67ffffffffffffffff8111156105bf576105be610358565b5b6105c982546103b6565b6105d4828285610510565b600060209050601f83116001811461060757600084156105f5578287015190505b6105ff8582610581565b865550610667565b601f198416610615866103e7565b60005b8281101561063d57848901518255600182019150602085019450602081019050610618565b8683101561065a5784890151610656601f891682610563565b8355505b6001600288020188555050505b505050505050565b611b4b8061067e6000396000f3fe608060405234801561001057600080fd5b50600436106101215760003560e01c806340c10f19116100ad57806395d89b411161007157806395d89b4114610330578063a217fddf1461034e578063a9059cbb1461036c578063d547741f1461039c578063dd62ed3e146103b857610121565b806340c10f19146102785780636290865d1461029457806370a08231146102b257806382aefa24146102e257806391d148541461030057610121565b806323b872dd116100f457806323b872dd146101c2578063248a9ca3146101f25780632f2ff15d14610222578063313ce5671461023e57806336568abe1461025c57610121565b806301ffc9a71461012657806306fdde0314610156578063095ea7b31461017457806318160ddd146101a4575b600080fd5b610140600480360381019061013b919061141d565b6103e8565b60405161014d9190611465565b60405180910390f35b61015e610462565b60405161016b9190611510565b60405180910390f35b61018e600480360381019061018991906115c6565b6104f4565b60405161019b9190611465565b60405180910390f35b6101ac610517565b6040516101b99190611615565b60405180910390f35b6101dc60048036038101906101d79190611630565b610521565b6040516101e99190611465565b60405180910390f35b61020c600480360381019061020791906116b9565b610550565b60405161021991906116f5565b60405180910390f35b61023c60048036038101906102379190611710565b610570565b005b610246610592565b604051610253919061176c565b60405180910390f35b61027660048036038101906102719190611710565b61059b565b005b610292600480360381019061028d91906115c6565b610616565b005b61029c61072c565b6040516102a991906117e6565b60405180910390f35b6102cc60048036038101906102c79190611801565b610752565b6040516102d99190611615565b60405180910390f35b6102ea61079a565b6040516102f791906116f5565b60405180910390f35b61031a60048036038101906103159190611710565b6107be565b6040516103279190611465565b60405180910390f35b610338610829565b6040516103459190611510565b60405180910390f35b6103566108bb565b60405161036391906116f5565b60405180910390f35b610386600480360381019061038191906115c6565b6108c2565b6040516103939190611465565b60405180910390f35b6103b660048036038101906103b19190611710565b6108e5565b005b6103d260048036038101906103cd919061182e565b610907565b6040516103df9190611615565b60405180910390f35b60007f7965db0b000000000000000000000000000000000000000000000000000000007bffffffffffffffffffffffffffffffffffffffffffffffffffffffff1916827bffffffffffffffffffffffffffffffffffffffffffffffffffffffff1916148061045b575061045a8261098e565b5b9050919050565b6060600380546104719061189d565b80601f016020809104026020016040519081016040528092919081815260200182805461049d9061189d565b80156104ea5780601f106104bf576101008083540402835291602001916104ea565b820191906000526020600020905b8154815290600101906020018083116104cd57829003601f168201915b5050505050905090565b6000806104ff6109f8565b905061050c818585610a00565b600191505092915050565b6000600254905090565b60008061052c6109f8565b9050610539858285610a12565b610544858585610aa7565b60019150509392505050565b600060056000838152602001908152602001600020600101549050919050565b61057982610550565b61058281610b9b565b61058c8383610baf565b50505050565b60006012905090565b6105a36109f8565b73ffffffffffffffffffffffffffffffffffffffff168173ffffffffffffffffffffffffffffffffffffffff1614610607576040517f6697b23200000000000000000000000000000000000000000000000000000000815260040160405180910390fd5b6106118282610ca1565b505050565b7f114e74f6ea3bd819998f78687bfcb11b140da08e9b7d222fa9c1f1ba1f2aa12261064081610b9b565b600660009054906101000a900473ffffffffffffffffffffffffffffffffffffffff1673ffffffffffffffffffffffffffffffffffffffff166397e2b9af33856040518363ffffffff1660e01b815260040161069d9291906118dd565b602060405180830381865afa1580156106ba573d6000803e3d6000fd5b505050506040513d601f19601f820116820180604052508101906106de9190611932565b61071d576040517f08c379a0000000000000000000000000000000000000000000000000000000008152600401610714906119ab565b60405180910390fd5b6107278383610d94565b505050565b600660009054906101000a900473ffffffffffffffffffffffffffffffffffffffff1681565b60008060008373ffffffffffffffffffffffffffffffffffffffff1673ffffffffffffffffffffffffffffffffffffffff168152602001908152602001600020549050919050565b7f114e74f6ea3bd819998f78687bfcb11b140da08e9b7d222fa9c1f1ba1f2aa12281565b60006005600084815260200190815260200160002060000160008373ffffffffffffffffffffffffffffffffffffffff1673ffffffffffffffffffffffffffffffffffffffff16815260200190815260200160002060009054906101000a900460ff16905092915050565b6060600480546108389061189d565b80601f01602080910402602001604051908101604052809291908181526020018280546108649061189d565b80156108b15780601f10610886576101008083540402835291602001916108b1565b820191906000526020600020905b81548152906001019060200180831161089457829003601f168201915b5050505050905090565b6000801b81565b6000806108cd6109f8565b90506108da818585610aa7565b600191505092915050565b6108ee82610550565b6108f781610b9b565b6109018383610ca1565b50505050565b6000600160008473ffffffffffffffffffffffffffffffffffffffff1673ffffffffffffffffffffffffffffffffffffffff16815260200190815260200160002060008373ffffffffffffffffffffffffffffffffffffffff1673ffffffffffffffffffffffffffffffffffffffff16815260200190815260200160002054905092915050565b60007f01ffc9a7000000000000000000000000000000000000000000000000000000007bffffffffffffffffffffffffffffffffffffffffffffffffffffffff1916827bffffffffffffffffffffffffffffffffffffffffffffffffffffffff1916149050919050565b600033905090565b610a0d8383836001610e16565b505050565b6000610a1e8484610907565b90507fffffffffffffffffffffffffffffffffffffffffffffffffffffffffffffffff811015610aa15781811015610a91578281836040517ffb8f41b2000000000000000000000000000000000000000000000000000000008152600401610a88939291906119cb565b60405180910390fd5b610aa084848484036000610e16565b5b50505050565b600073ffffffffffffffffffffffffffffffffffffffff168373ffffffffffffffffffffffffffffffffffffffff1603610b195760006040517f96c6fd1e000000000000000000000000000000000000000000000000000000008152600401610b109190611a02565b60405180910390fd5b600073ffffffffffffffffffffffffffffffffffffffff168273ffffffffffffffffffffffffffffffffffffffff1603610b8b5760006040517fec442f05000000000000000000000000000000000000000000000000000000008152600401610b829190611a02565b60405180910390fd5b610b96838383610fed565b505050565b610bac81610ba76109f8565b61114a565b50565b6000610bbb83836107be565b610c965760016005600085815260200190815260200160002060000160008473ffffffffffffffffffffffffffffffffffffffff1673ffffffffffffffffffffffffffffffffffffffff16815260200190815260200160002060006101000a81548160ff021916908315150217905550610c336109f8565b73ffffffffffffffffffffffffffffffffffffffff168273ffffffffffffffffffffffffffffffffffffffff16847f2f8788117e7eff1d82e926ec794901d17c78024a50270940304540a733656f0d60405160405180910390a460019050610c9b565b600090505b92915050565b6000610cad83836107be565b15610d895760006005600085815260200190815260200160002060000160008473ffffffffffffffffffffffffffffffffffffffff1673ffffffffffffffffffffffffffffffffffffffff16815260200190815260200160002060006101000a81548160ff021916908315150217905550610d266109f8565b73ffffffffffffffffffffffffffffffffffffffff168273ffffffffffffffffffffffffffffffffffffffff16847ff6391f5c32d9c69d2a47ea670b442974b53935d1edc7fd64eb21e047a839171b60405160405180910390a460019050610d8e565b600090505b92915050565b600073ffffffffffffffffffffffffffffffffffffffff168273ffffffffffffffffffffffffffffffffffffffff1603610e065760006040517fec442f05000000000000000000000000000000000000000000000000000000008152600401610dfd9190611a02565b60405180910390fd5b610e1260008383610fed565b5050565b600073ffffffffffffffffffffffffffffffffffffffff168473ffffffffffffffffffffffffffffffffffffffff1603610e885760006040517fe602df05000000000000000000000000000000000000000000000000000000008152600401610e7f9190611a02565b60405180910390fd5b600073ffffffffffffffffffffffffffffffffffffffff168373ffffffffffffffffffffffffffffffffffffffff1603610efa5760006040517f94280d62000000000000000000000000000000000000000000000000000000008152600401610ef19190611a02565b60405180910390fd5b81600160008673ffffffffffffffffffffffffffffffffffffffff1673ffffffffffffffffffffffffffffffffffffffff16815260200190815260200160002060008573ffffffffffffffffffffffffffffffffffffffff1673ffffffffffffffffffffffffffffffffffffffff168152602001908152602001600020819055508015610fe7578273ffffffffffffffffffffffffffffffffffffffff168473ffffffffffffffffffffffffffffffffffffffff167f8c5be1e5ebec7d5bd14f71427d1e84f3dd0314c0f7b2291e5b200ac8c7c3b92584604051610fde9190611615565b60405180910390a35b50505050565b610ff883838361119b565b600073ffffffffffffffffffffffffffffffffffffffff168373ffffffffffffffffffffffffffffffffffffffff16141580156110625750600073ffffffffffffffffffffffffffffffffffffffff168273ffffffffffffffffffffffffffffffffffffffff1614155b1561114557600660009054906101000a900473ffffffffffffffffffffffffffffffffffffffff1673ffffffffffffffffffffffffffffffffffffffff166397e2b9af84846040518363ffffffff1660e01b81526004016110c49291906118dd565b602060405180830381865afa1580156110e1573d6000803e3d6000fd5b505050506040513d601f19601f820116820180604052508101906111059190611932565b611144576040517f08c379a000000000000000000000000000000000000000000000000000000000815260040161113b90611a69565b60405180910390fd5b5b505050565b61115482826107be565b6111975780826040517fe2517d3f00000000000000000000000000000000000000000000000000000000815260040161118e929190611a89565b60405180910390fd5b5050565b600073ffffffffffffffffffffffffffffffffffffffff168373ffffffffffffffffffffffffffffffffffffffff16036111ed5780600260008282546111e19190611ae1565b925050819055506112c0565b60008060008573ffffffffffffffffffffffffffffffffffffffff1673ffffffffffffffffffffffffffffffffffffffff16815260200190815260200160002054905081811015611279578381836040517fe450d38c000000000000000000000000000000000000000000000000000000008152600401611270939291906119cb565b60405180910390fd5b8181036000808673ffffffffffffffffffffffffffffffffffffffff1673ffffffffffffffffffffffffffffffffffffffff16815260200190815260200160002081905550505b600073ffffffffffffffffffffffffffffffffffffffff168273ffffffffffffffffffffffffffffffffffffffff16036113095780600260008282540392505081905550611356565b806000808473ffffffffffffffffffffffffffffffffffffffff1673ffffffffffffffffffffffffffffffffffffffff168152602001908152602001600020600082825401925050819055505b8173ffffffffffffffffffffffffffffffffffffffff168373ffffffffffffffffffffffffffffffffffffffff167fddf252ad1be2c89b69c2b068fc378daa952ba7f163c4a11628f55a4df523b3ef836040516113b39190611615565b60405180910390a3505050565b600080fd5b60007fffffffff0000000000000000000000000000000000000000000000000000000082169050919050565b6113fa816113c5565b811461140557600080fd5b50565b600081359050611417816113f1565b92915050565b600060208284031215611433576114326113c0565b5b600061144184828501611408565b91505092915050565b60008115159050919050565b61145f8161144a565b82525050565b600060208201905061147a6000830184611456565b92915050565b600081519050919050565b600082825260208201905092915050565b60005b838110156114ba57808201518184015260208101905061149f565b60008484015250505050565b6000601f19601f8301169050919050565b60006114e282611480565b6114ec818561148b565b93506114fc81856020860161149c565b611505816114c6565b840191505092915050565b6000602082019050818103600083015261152a81846114d7565b905092915050565b600073ffffffffffffffffffffffffffffffffffffffff82169050919050565b600061155d82611532565b9050919050565b61156d81611552565b811461157857600080fd5b50565b60008135905061158a81611564565b92915050565b6000819050919050565b6115a381611590565b81146115ae57600080fd5b50565b6000813590506115c08161159a565b92915050565b600080604083850312156115dd576115dc6113c0565b5b60006115eb8582860161157b565b92505060206115fc858286016115b1565b9150509250929050565b61160f81611590565b82525050565b600060208201905061162a6000830184611606565b92915050565b600080600060608486031215611649576116486113c0565b5b60006116578682870161157b565b93505060206116688682870161157b565b9250506040611679868287016115b1565b9150509250925092565b6000819050919050565b61169681611683565b81146116a157600080fd5b50565b6000813590506116b38161168d565b92915050565b6000602082840312156116cf576116ce6113c0565b5b60006116dd848285016116a4565b91505092915050565b6116ef81611683565b82525050565b600060208201905061170a60008301846116e6565b92915050565b60008060408385031215611727576117266113c0565b5b6000611735858286016116a4565b92505060206117468582860161157b565b9150509250929050565b600060ff82169050919050565b61176681611750565b82525050565b6000602082019050611781600083018461175d565b92915050565b6000819050919050565b60006117ac6117a76117a284611532565b611787565b611532565b9050919050565b60006117be82611791565b9050919050565b60006117d0826117b3565b9050919050565b6117e0816117c5565b82525050565b60006020820190506117fb60008301846117d7565b92915050565b600060208284031215611817576118166113c0565b5b60006118258482850161157b565b91505092915050565b60008060408385031215611845576118446113c0565b5b60006118538582860161157b565b92505060206118648582860161157b565b9150509250929050565b7f4e487b7100000000000000000000000000000000000000000000000000000000600052602260045260246000fd5b600060028204905060018216806118b557607f821691505b6020821081036118c8576118c761186e565b5b50919050565b6118d781611552565b82525050565b60006040820190506118f260008301856118ce565b6118ff60208301846118ce565b9392505050565b61190f8161144a565b811461191a57600080fd5b50565b60008151905061192c81611906565b92915050565b600060208284031215611948576119476113c0565b5b60006119568482850161191d565b91505092915050565b7f4e6f7420636f6d706c69616e7400000000000000000000000000000000000000600082015250565b6000611995600d8361148b565b91506119a08261195f565b602082019050919050565b600060208201905081810360008301526119c481611988565b9050919050565b60006060820190506119e060008301866118ce565b6119ed6020830185611606565b6119fa6040830184611606565b949350505050565b6000602082019050611a1760008301846118ce565b92915050565b7f5472616e73666572206e6f7420636f6d706c69616e7400000000000000000000600082015250565b6000611a5360168361148b565b9150611a5e82611a1d565b602082019050919050565b60006020820190508181036000830152611a8281611a46565b9050919050565b6000604082019050611a9e60008301856118ce565b611aab60208301846116e6565b9392505050565b7f4e487b7100000000000000000000000000000000000000000000000000000000600052601160045260246000fd5b6000611aec82611590565b9150611af783611590565b9250828201905080821115611b0f57611b0e611ab2565b5b9291505056fea2646970667358221220226a7a2a00e22ba9909e22a9c3e5c42ba7b4cb5c8e5d795c88b322c2a996057064736f6c634300081e0033",
  "linkReferences": {},
  "deployedLinkReferences": {}
}