{
  "_format": "hh-sol-artifact-1",
  "contractName": "IdentityRegistry",
  "sourceName": "contracts/IdentityRegistry.sol",
  "abi": [
    {
      "inputs": [],
      "stateMutability": "nonpayable",
      "type": "constructor"
    },
    {
      "inputs": [],
      "name": "admin",
      "outputs": [
        {
          "internalType": "address",
          "name": "",
          "type": "address"
        }
      ],
      "stateMutability": "view",
      "type": "function"
    },
    {
      "inputs": [
        {
          "internalType": "address",
          "name": "user",
          "type": "address"
        }
      ],
      "name": "getCountry",
      "outputs": [
        {
          "internalType": "string",
          "name": "",
          "type": "string"
        }
      ],
      "stateMutability": "view",
      "type": "function"
    },
    {
      "inputs": [
        {
          "internalType": "address",
          "name": "",
          "type": "address"
        }
      ],
      "name": "identities",
      "outputs": [
        {
          "internalType": "bool",
          "name": "isVerified",
          "type": "bool"
        },
        {
          "internalType": "string",
          "name": "country",
          "type": "string"
        }
      ],
      "stateMutability": "view",
      "type": "function"
    },
    {
      "inputs": [
        {
          "internalType": "address",
          "name": "user",
          "type": "address"
        }
      ],
      "name": "isVerified",
      "outputs": [
        {
          "internalType": "bool",
          "name": "",
          "type": "bool"
        }
      ],
      "stateMutability": "view",
      "type": "function"
    },
    {
      "inputs": [
        {
          "internalType": "address",
          "name": "user",
          "type": "address"
        },
        {
          "internalType": "bool",
          "name": "verified",
          "type": "bool"
        },
        {
          "internalType": "string",
          "name": "country",
          "type": "string"
        }
      ],
      "name": "setIdentity",
      "outputs": [],
      "stateMutability": "nonpayable",
      "type": "function"
    }
  ],
  "bytecode": "0x6080604052348015600f57600080fd5b50336000806101000a81548173ffffffffffffffffffffffffffffffffffffffff021916908373ffffffffffffffffffffffffffffffffffffffff160217905550610b8e8061005f6000396000f3fe608060405234801561001057600080fd5b50600436106100575760003560e01c8063b9209e331461005c578063c74cfc4a1461008c578063d821f92d146100a8578063f653b81e146100d8578063f851a44014610109575b600080fd5b610076600480360381019061007191906104c5565b610127565b604051610083919061050d565b60405180910390f35b6100a660048036038101906100a1919061069a565b610180565b005b6100c260048036038101906100bd91906104c5565b6102a2565b6040516100cf9190610788565b60405180910390f35b6100f260048036038101906100ed91906104c5565b610376565b6040516101009291906107aa565b60405180910390f35b61011161042f565b60405161011e91906107e9565b60405180910390f35b6000600160008373ffffffffffffffffffffffffffffffffffffffff1673ffffffffffffffffffffffffffffffffffffffff16815260200190815260200160002060000160009054906101000a900460ff169050919050565b60008054906101000a900473ffffffffffffffffffffffffffffffffffffffff1673ffffffffffffffffffffffffffffffffffffffff163373ffffffffffffffffffffffffffffffffffffffff161461020e576040517f08c379a000000000000000000000000000000000000000000000000000000000815260040161020590610850565b60405180910390fd5b6040518060400160405280831515815260200182815250600160008573ffffffffffffffffffffffffffffffffffffffff1673ffffffffffffffffffffffffffffffffffffffff16815260200190815260200160002060008201518160000160006101000a81548160ff02191690831515021790555060208201518160010190816102999190610a86565b50905050505050565b6060600160008373ffffffffffffffffffffffffffffffffffffffff1673ffffffffffffffffffffffffffffffffffffffff16815260200190815260200160002060010180546102f19061089f565b80601f016020809104026020016040519081016040528092919081815260200182805461031d9061089f565b801561036a5780601f1061033f5761010080835404028352916020019161036a565b820191906000526020600020905b81548152906001019060200180831161034d57829003601f168201915b50505050509050919050565b60016020528060005260406000206000915090508060000160009054906101000a900460ff16908060010180546103ac9061089f565b80601f01602080910402602001604051908101604052809291908181526020018280546103d89061089f565b80156104255780601f106103fa57610100808354040283529160200191610425565b820191906000526020600020905b81548152906001019060200180831161040857829003601f168201915b5050505050905082565b60008054906101000a900473ffffffffffffffffffffffffffffffffffffffff1681565b6000604051905090565b600080fd5b600080fd5b600073ffffffffffffffffffffffffffffffffffffffff82169050919050565b600061049282610467565b9050919050565b6104a281610487565b81146104ad57600080fd5b50565b6000813590506104bf81610499565b92915050565b6000602082840312156104db576104da61045d565b5b60006104e9848285016104b0565b91505092915050565b60008115159050919050565b610507816104f2565b82525050565b600060208201905061052260008301846104fe565b92915050565b610531816104f2565b811461053c57600080fd5b50565b60008135905061054e81610528565b92915050565b600080fd5b600080fd5b6000601f19601f8301169050919050565b7f4e487b7100000000000000000000000000000000000000000000000000000000600052604160045260246000fd5b6105a78261055e565b810181811067ffffffffffffffff821117156105c6576105c561056f565b5b80604052505050565b60006105d9610453565b90506105e5828261059e565b919050565b600067ffffffffffffffff8211156106055761060461056f565b5b61060e8261055e565b9050602081019050919050565b82818337600083830152505050565b600061063d610638846105ea565b6105cf565b90508281526020810184848401111561065957610658610559565b5b61066484828561061b565b509392505050565b600082601f83011261068157610680610554565b5b813561069184826020860161062a565b91505092915050565b6000806000606084860312156106b3576106b261045d565b5b60006106c1868287016104b0565b93505060206106d28682870161053f565b925050604084013567ffffffffffffffff8111156106f3576106f2610462565b5b6106ff8682870161066c565b9150509250925092565b600081519050919050565b600082825260208201905092915050565b60005b83811015610743578082015181840152602081019050610728565b60008484015250505050565b600061075a82610709565b6107648185610714565b9350610774818560208601610725565b61077d8161055e565b840191505092915050565b600060208201905081810360008301526107a2818461074f565b905092915050565b60006040820190506107bf60008301856104fe565b81810360208301526107d1818461074f565b90509392505050565b6107e381610487565b82525050565b60006020820190506107fe60008301846107da565b92915050565b7f4f6e6c792061646d696e00000000000000000000000000000000000000000000600082015250565b600061083a600a83610714565b915061084582610804565b602082019050919050565b600060208201905081810360008301526108698161082d565b9050919050565b7f4e487b7100000000000000000000000000000000000000000000000000000000600052602260045260246000fd5b600060028204905060018216806108b757607f821691505b6020821081036108ca576108c9610870565b5b50919050565b60008190508160005260206000209050919050565b60006020601f8301049050919050565b600082821b905092915050565b6000600883026109327fffffffffffffffffffffffffffffffffffffffffffffffffffffffffffffffff826108f5565b61093c86836108f5565b95508019841693508086168417925050509392505050565b6000819050919050565b6000819050919050565b600061098361097e61097984610954565b61095e565b610954565b9050919050565b6000819050919050565b61099d83610968565b6109b16109a98261098a565b848454610902565b825550505050565b600090565b6109c66109b9565b6109d1818484610994565b505050565b5b818110156109f5576109ea6000826109be565b6001810190506109d7565b5050565b601f821115610a3a57610a0b816108d0565b610a14846108e5565b81016020851015610a23578190505b610a37610a2f856108e5565b8301826109d6565b50505b505050565b600082821c905092915050565b6000610a5d60001984600802610a3f565b1980831691505092915050565b6000610a768383610a4c565b9150826002028217905092915050565b610a8f82610709565b67ffffffffffffffff811115610aa857610aa761056f565b5b610ab2825461089f565b610abd8282856109f9565b600060209050601f831160018114610af05760008415610ade578287015190505b610ae88582610a6a565b865550610b50565b601f198416610afe866108d0565b60005b82811015610b2657848901518255600182019150602085019450602081019050610b01565b86831015610b435784890151610b3f601f891682610a4c565b8355505b6001600288020188555050505b50505050505056fea2646970667358221220aa28adc29422e3b489f59b923c26f4987162ad662d982428562f7b46320b33e064736f6c634300081e0033",
  "linkReferences": {},
  "deployedLinkReferences": {}
}