{
  "_format": "hh-sol-artifact-1",
  "contractName": "ComplianceModule",
  "sourceName": "contracts/ComplianceModule.sol",
  "abi": [
    {
      "inputs": [
        {
          "internalType": "address",
          "name": "_identityRegistry",
          "type": "address"
        }
      ],
      "stateMutability": "nonpayable",
      "type": "constructor"
    },
    {
      "inputs": [],
      "name": "identityRegistry",
      "outputs": [
        {
          "internalType": "contract IdentityRegistry",
          "name": "",
          "type": "address"
        }
      ],
      "stateMutability": "view",
      "type": "function"
    },
    {
      "inputs": [
        {
          "internalType": "address",
          "name": "from",
          "type": "address"
        },
        {
          "internalType": "address",
          "name": "to",
          "type": "address"
        }
      ],
      "name": "isTransferAllowed",
      "outputs": [
        {
          "internalType": "bool",
          "name": "",
          "type": "bool"
        }
      ],
      "stateMutability": "view",
      "type": "function"
    },
    {
      "inputs": [
        {
          "internalType": "string",
          "name": "country",
          "type": "string"
        },
        {
          "internalType": "bool",
          "name": "status",
          "type": "bool"
        }
      ],
      "name": "setWhitelistedCountry",
      "outputs": [],
      "stateMutability": "nonpayable",
      "type": "function"
    },
    {
      "inputs": [
        {
          "internalType": "string",
          "name": "",
          "type": "string"
        }
      ],
      "name": "whitelistedCountries",
      "outputs": [
        {
          "internalType": "bool",
          "name": "",
          "type": "bool"
        }
      ],
      "stateMutability": "view",
      "type": "function"
    }
  ],
  "bytecode": "0x608060405234801561001057600080fd5b50604051610a0b380380610a0b833981810160405281019061003291906100db565b806000806101000a81548173ffffffffffffffffffffffffffffffffffffffff021916908373ffffffffffffffffffffffffffffffffffffffff16021790555050610108565b600080fd5b600073ffffffffffffffffffffffffffffffffffffffff82169050919050565b60006100a88261007d565b9050919050565b6100b88161009d565b81146100c357600080fd5b50565b6000815190506100d5816100af565b92915050565b6000602082840312156100f1576100f0610078565b5b60006100ff848285016100c6565b91505092915050565b6108f4806101176000396000f3fe608060405234801561001057600080fd5b506004361061004c5760003560e01c8063134e18f41461005157806397e2b9af1461006f578063a44d01131461009f578063d0d2b42f146100cf575b600080fd5b6100596100eb565b6040516100669190610417565b60405180910390f35b61008960048036038101906100849190610484565b61010f565b60405161009691906104df565b60405180910390f35b6100b960048036038101906100b49190610640565b610328565b6040516100c691906104df565b60405180910390f35b6100e960048036038101906100e491906106b5565b61035e565b005b60008054906101000a900473ffffffffffffffffffffffffffffffffffffffff1681565b60008060009054906101000a900473ffffffffffffffffffffffffffffffffffffffff1673ffffffffffffffffffffffffffffffffffffffff1663b9209e33846040518263ffffffff1660e01b815260040161016b9190610720565b602060405180830381865afa158015610188573d6000803e3d6000fd5b505050506040513d601f19601f820116820180604052508101906101ac9190610750565b801561024e575060008054906101000a900473ffffffffffffffffffffffffffffffffffffffff1673ffffffffffffffffffffffffffffffffffffffff1663b9209e33836040518263ffffffff1660e01b815260040161020c9190610720565b602060405180830381865afa158015610229573d6000803e3d6000fd5b505050506040513d601f19601f8201168201806040525081019061024d9190610750565b5b80156103205750600160008054906101000a900473ffffffffffffffffffffffffffffffffffffffff1673ffffffffffffffffffffffffffffffffffffffff1663d821f92d846040518263ffffffff1660e01b81526004016102b09190610720565b600060405180830381865afa1580156102cd573d6000803e3d6000fd5b505050506040513d6000823e3d601f19601f820116820180604052508101906102f69190610817565b60405161030391906108a7565b908152602001604051809103902060009054906101000a900460ff165b905092915050565b6001818051602081018201805184825260208301602085012081835280955050505050506000915054906101000a900460ff1681565b8060018360405161036f91906108a7565b908152602001604051809103902060006101000a81548160ff0219169083151502179055505050565b600073ffffffffffffffffffffffffffffffffffffffff82169050919050565b6000819050919050565b60006103dd6103d86103d384610398565b6103b8565b610398565b9050919050565b60006103ef826103c2565b9050919050565b6000610401826103e4565b9050919050565b610411816103f6565b82525050565b600060208201905061042c6000830184610408565b92915050565b6000604051905090565b600080fd5b600080fd5b600061045182610398565b9050919050565b61046181610446565b811461046c57600080fd5b50565b60008135905061047e81610458565b92915050565b6000806040838503121561049b5761049a61043c565b5b60006104a98582860161046f565b92505060206104ba8582860161046f565b9150509250929050565b60008115159050919050565b6104d9816104c4565b82525050565b60006020820190506104f460008301846104d0565b92915050565b600080fd5b600080fd5b6000601f19601f8301169050919050565b7f4e487b7100000000000000000000000000000000000000000000000000000000600052604160045260246000fd5b61054d82610504565b810181811067ffffffffffffffff8211171561056c5761056b610515565b5b80604052505050565b600061057f610432565b905061058b8282610544565b919050565b600067ffffffffffffffff8211156105ab576105aa610515565b5b6105b482610504565b9050602081019050919050565b82818337600083830152505050565b60006105e36105de84610590565b610575565b9050828152602081018484840111156105ff576105fe6104ff565b5b61060a8482856105c1565b509392505050565b600082601f830112610627576106266104fa565b5b81356106378482602086016105d0565b91505092915050565b6000602082840312156106565761065561043c565b5b600082013567ffffffffffffffff81111561067457610673610441565b5b61068084828501610612565b91505092915050565b610692816104c4565b811461069d57600080fd5b50565b6000813590506106af81610689565b92915050565b600080604083850312156106cc576106cb61043c565b5b600083013567ffffffffffffffff8111156106ea576106e9610441565b5b6106f685828601610612565b9250506020610707858286016106a0565b9150509250929050565b61071a81610446565b82525050565b60006020820190506107356000830184610711565b92915050565b60008151905061074a81610689565b92915050565b6000602082840312156107665761076561043c565b5b60006107748482850161073b565b91505092915050565b60005b8381101561079b578082015181840152602081019050610780565b60008484015250505050565b60006107ba6107b584610590565b610575565b9050828152602081018484840111156107d6576107d56104ff565b5b6107e184828561077d565b509392505050565b600082601f8301126107fe576107fd6104fa565b5b815161080e8482602086016107a7565b91505092915050565b60006020828403121561082d5761082c61043c565b5b600082015167ffffffffffffffff81111561084b5761084a610441565b5b610857848285016107e9565b91505092915050565b600081519050919050565b600081905092915050565b600061088182610860565b61088b818561086b565b935061089b81856020860161077d565b80840191505092915050565b60006108b38284610876565b91508190509291505056fea26469706673582212205f8cd6a0bcd2a3492d0b853d601460fa52372969ad95e749cabf9af8d11f706464736f6c634300081e0033",
  "linkReferences": {},
  "deployedLinkReferences": {}
}